{
	"contracts/StringsExample.sol": {
		"ExampleString": {
			"abi": [
				{
					"inputs": [],
					"name": "modifyString",
					"outputs": [
						{
							"internalType": "bool",
							"name": "",
							"type": "bool"
						}
					],
					"stateMutability": "view",
					"type": "function"
				},
				{
					"inputs": [],
					"name": "myString",
					"outputs": [
						{
							"internalType": "string",
							"name": "",
							"type": "string"
						}
					],
					"stateMutability": "view",
					"type": "function"
				},
				{
					"inputs": [],
					"name": "newString",
					"outputs": [
						{
							"internalType": "string",
							"name": "",
							"type": "string"
						}
					],
					"stateMutability": "view",
					"type": "function"
				},
				{
					"inputs": [
						{
							"internalType": "string",
							"name": "nextString",
							"type": "string"
						}
					],
					"name": "setNewString",
					"outputs": [],
					"stateMutability": "nonpayable",
					"type": "function"
				}
			],
			"devdoc": {
				"kind": "dev",
				"methods": {},
				"version": 1
			},
			"evm": {
				"assembly": "    /* \"contracts/StringsExample.sol\":67:614  contract ExampleString {... */\n  mstore(0x40, 0x80)\n    /* \"contracts/StringsExample.sol\":101:139  string public myString = \"Hello World\" */\n  mload(0x40)\n  dup1\n  0x40\n  add\n  0x40\n  mstore\n  dup1\n  0x0b\n  dup2\n  mstore\n  0x20\n  add\n  0x48656c6c6f20576f726c64000000000000000000000000000000000000000000\n  dup2\n  mstore\n  pop\n  0x00\n  swap1\n  dup1\n  mload\n  swap1\n  0x20\n  add\n  swap1\n  tag_1\n  swap3\n  swap2\n  swap1\n  tag_2\n  jump\t// in\ntag_1:\n  pop\n    /* \"contracts/StringsExample.sol\":150:189  string public newString = \"Hello World\" */\n  mload(0x40)\n  dup1\n  0x40\n  add\n  0x40\n  mstore\n  dup1\n  0x0b\n  dup2\n  mstore\n  0x20\n  add\n  0x48656c6c6f20576f726c64000000000000000000000000000000000000000000\n  dup2\n  mstore\n  pop\n  0x01\n  swap1\n  dup1\n  mload\n  swap1\n  0x20\n  add\n  swap1\n  tag_3\n  swap3\n  swap2\n  swap1\n  tag_2\n  jump\t// in\ntag_3:\n  pop\n    /* \"contracts/StringsExample.sol\":67:614  contract ExampleString {... */\n  callvalue\n  dup1\n  iszero\n  tag_4\n  jumpi\n  0x00\n  dup1\n  revert\ntag_4:\n  pop\n  jump(tag_5)\ntag_2:\n  dup3\n  dup1\n  sload\n  tag_6\n  swap1\n  tag_7\n  jump\t// in\ntag_6:\n  swap1\n  0x00\n  mstore\n  keccak256(0x00, 0x20)\n  swap1\n  0x1f\n  add\n  0x20\n  swap1\n  div\n  dup2\n  add\n  swap3\n  dup3\n  tag_9\n  jumpi\n  0x00\n  dup6\n  sstore\n  jump(tag_8)\ntag_9:\n  dup3\n  0x1f\n  lt\n  tag_10\n  jumpi\n  dup1\n  mload\n  not(0xff)\n  and\n  dup4\n  dup1\n  add\n  or\n  dup6\n  sstore\n  jump(tag_8)\ntag_10:\n  dup3\n  dup1\n  add\n  0x01\n  add\n  dup6\n  sstore\n  dup3\n  iszero\n  tag_8\n  jumpi\n  swap2\n  dup3\n  add\ntag_11:\n  dup3\n  dup2\n  gt\n  iszero\n  tag_12\n  jumpi\n  dup3\n  mload\n  dup3\n  sstore\n  swap2\n  0x20\n  add\n  swap2\n  swap1\n  0x01\n  add\n  swap1\n  jump(tag_11)\ntag_12:\ntag_8:\n  pop\n  swap1\n  pop\n  tag_13\n  swap2\n  swap1\n  tag_14\n  jump\t// in\ntag_13:\n  pop\n  swap1\n  jump\t// out\ntag_14:\ntag_15:\n  dup1\n  dup3\n  gt\n  iszero\n  tag_16\n  jumpi\n  0x00\n  dup2\n  0x00\n  swap1\n  sstore\n  pop\n  0x01\n  add\n  jump(tag_15)\ntag_16:\n  pop\n  swap1\n  jump\t// out\n    /* \"#utility.yul\":7:187   */\ntag_17:\n    /* \"#utility.yul\":55:132   */\n  0x4e487b7100000000000000000000000000000000000000000000000000000000\n    /* \"#utility.yul\":52:53   */\n  0x00\n    /* \"#utility.yul\":45:133   */\n  mstore\n    /* \"#utility.yul\":152:156   */\n  0x22\n    /* \"#utility.yul\":149:150   */\n  0x04\n    /* \"#utility.yul\":142:157   */\n  mstore\n    /* \"#utility.yul\":176:180   */\n  0x24\n    /* \"#utility.yul\":173:174   */\n  0x00\n    /* \"#utility.yul\":166:181   */\n  revert\n    /* \"#utility.yul\":193:513   */\ntag_7:\n    /* \"#utility.yul\":237:243   */\n  0x00\n    /* \"#utility.yul\":274:275   */\n  0x02\n    /* \"#utility.yul\":268:272   */\n  dup3\n    /* \"#utility.yul\":264:276   */\n  div\n    /* \"#utility.yul\":254:276   */\n  swap1\n  pop\n    /* \"#utility.yul\":321:322   */\n  0x01\n    /* \"#utility.yul\":315:319   */\n  dup3\n    /* \"#utility.yul\":311:323   */\n  and\n    /* \"#utility.yul\":342:360   */\n  dup1\n    /* \"#utility.yul\":332:413   */\n  tag_21\n  jumpi\n    /* \"#utility.yul\":398:402   */\n  0x7f\n    /* \"#utility.yul\":390:396   */\n  dup3\n    /* \"#utility.yul\":386:403   */\n  and\n    /* \"#utility.yul\":376:403   */\n  swap2\n  pop\n    /* \"#utility.yul\":332:413   */\ntag_21:\n    /* \"#utility.yul\":460:462   */\n  0x20\n    /* \"#utility.yul\":452:458   */\n  dup3\n    /* \"#utility.yul\":449:463   */\n  lt\n    /* \"#utility.yul\":429:447   */\n  dup2\n    /* \"#utility.yul\":426:464   */\n  sub\n    /* \"#utility.yul\":423:507   */\n  tag_22\n  jumpi\n    /* \"#utility.yul\":479:497   */\n  tag_23\n  tag_17\n  jump\t// in\ntag_23:\n    /* \"#utility.yul\":423:507   */\ntag_22:\n    /* \"#utility.yul\":244:513   */\n  pop\n    /* \"#utility.yul\":193:513   */\n  swap2\n  swap1\n  pop\n  jump\t// out\n    /* \"contracts/StringsExample.sol\":67:614  contract ExampleString {... */\ntag_5:\n  dataSize(sub_0)\n  dup1\n  dataOffset(sub_0)\n  0x00\n  codecopy\n  0x00\n  return\nstop\n\nsub_0: assembly {\n        /* \"contracts/StringsExample.sol\":67:614  contract ExampleString {... */\n      mstore(0x40, 0x80)\n      callvalue\n      dup1\n      iszero\n      tag_1\n      jumpi\n      0x00\n      dup1\n      revert\n    tag_1:\n      pop\n      jumpi(tag_2, lt(calldatasize, 0x04))\n      shr(0xe0, calldataload(0x00))\n      dup1\n      0x1abd9de4\n      eq\n      tag_3\n      jumpi\n      dup1\n      0x492bfa18\n      eq\n      tag_4\n      jumpi\n      dup1\n      0x8380f98d\n      eq\n      tag_5\n      jumpi\n      dup1\n      0xa9c9c2a1\n      eq\n      tag_6\n      jumpi\n    tag_2:\n      0x00\n      dup1\n      revert\n        /* \"contracts/StringsExample.sol\":308:607  function modifyString() public view returns(bool){... */\n    tag_3:\n      tag_7\n      tag_8\n      jump\t// in\n    tag_7:\n      mload(0x40)\n      tag_9\n      swap2\n      swap1\n      tag_10\n      jump\t// in\n    tag_9:\n      mload(0x40)\n      dup1\n      swap2\n      sub\n      swap1\n      return\n        /* \"contracts/StringsExample.sol\":101:139  string public myString = \"Hello World\" */\n    tag_4:\n      tag_11\n      tag_12\n      jump\t// in\n    tag_11:\n      mload(0x40)\n      tag_13\n      swap2\n      swap1\n      tag_14\n      jump\t// in\n    tag_13:\n      mload(0x40)\n      dup1\n      swap2\n      sub\n      swap1\n      return\n        /* \"contracts/StringsExample.sol\":202:298  function setNewString(string memory nextString) public {... */\n    tag_5:\n      tag_15\n      0x04\n      dup1\n      calldatasize\n      sub\n      dup2\n      add\n      swap1\n      tag_16\n      swap2\n      swap1\n      tag_17\n      jump\t// in\n    tag_16:\n      tag_18\n      jump\t// in\n    tag_15:\n      stop\n        /* \"contracts/StringsExample.sol\":150:189  string public newString = \"Hello World\" */\n    tag_6:\n      tag_19\n      tag_20\n      jump\t// in\n    tag_19:\n      mload(0x40)\n      tag_21\n      swap2\n      swap1\n      tag_14\n      jump\t// in\n    tag_21:\n      mload(0x40)\n      dup1\n      swap2\n      sub\n      swap1\n      return\n        /* \"contracts/StringsExample.sol\":308:607  function modifyString() public view returns(bool){... */\n    tag_8:\n        /* \"contracts/StringsExample.sol\":352:356  bool */\n      0x00\n        /* \"contracts/StringsExample.sol\":584:593  newString */\n      0x01\n        /* \"contracts/StringsExample.sol\":567:594  abi.encodePacked(newString) */\n      add(0x20, mload(0x40))\n      tag_23\n      swap2\n      swap1\n      tag_24\n      jump\t// in\n    tag_23:\n      mload(0x40)\n      0x20\n      dup2\n      dup4\n      sub\n      sub\n      dup2\n      mstore\n      swap1\n      0x40\n      mstore\n        /* \"contracts/StringsExample.sol\":557:595  keccak256(abi.encodePacked(newString)) */\n      dup1\n      mload\n      swap1\n      0x20\n      add\n      keccak256\n        /* \"contracts/StringsExample.sol\":543:551  myString */\n      0x00\n        /* \"contracts/StringsExample.sol\":526:552  abi.encodePacked(myString) */\n      add(0x20, mload(0x40))\n      tag_25\n      swap2\n      swap1\n      tag_24\n      jump\t// in\n    tag_25:\n      mload(0x40)\n      0x20\n      dup2\n      dup4\n      sub\n      sub\n      dup2\n      mstore\n      swap1\n      0x40\n      mstore\n        /* \"contracts/StringsExample.sol\":516:553  keccak256(abi.encodePacked(myString)) */\n      dup1\n      mload\n      swap1\n      0x20\n      add\n      keccak256\n        /* \"contracts/StringsExample.sol\":516:595  keccak256(abi.encodePacked(myString)) == keccak256(abi.encodePacked(newString)) */\n      eq\n        /* \"contracts/StringsExample.sol\":509:595  return keccak256(abi.encodePacked(myString)) == keccak256(abi.encodePacked(newString)) */\n      swap1\n      pop\n        /* \"contracts/StringsExample.sol\":308:607  function modifyString() public view returns(bool){... */\n      swap1\n      jump\t// out\n        /* \"contracts/StringsExample.sol\":101:139  string public myString = \"Hello World\" */\n    tag_12:\n      0x00\n      dup1\n      sload\n      tag_26\n      swap1\n      tag_27\n      jump\t// in\n    tag_26:\n      dup1\n      0x1f\n      add\n      0x20\n      dup1\n      swap2\n      div\n      mul\n      0x20\n      add\n      mload(0x40)\n      swap1\n      dup2\n      add\n      0x40\n      mstore\n      dup1\n      swap3\n      swap2\n      swap1\n      dup2\n      dup2\n      mstore\n      0x20\n      add\n      dup3\n      dup1\n      sload\n      tag_28\n      swap1\n      tag_27\n      jump\t// in\n    tag_28:\n      dup1\n      iszero\n      tag_29\n      jumpi\n      dup1\n      0x1f\n      lt\n      tag_30\n      jumpi\n      0x0100\n      dup1\n      dup4\n      sload\n      div\n      mul\n      dup4\n      mstore\n      swap2\n      0x20\n      add\n      swap2\n      jump(tag_29)\n    tag_30:\n      dup3\n      add\n      swap2\n      swap1\n      0x00\n      mstore\n      keccak256(0x00, 0x20)\n      swap1\n    tag_31:\n      dup2\n      sload\n      dup2\n      mstore\n      swap1\n      0x01\n      add\n      swap1\n      0x20\n      add\n      dup1\n      dup4\n      gt\n      tag_31\n      jumpi\n      dup3\n      swap1\n      sub\n      0x1f\n      and\n      dup3\n      add\n      swap2\n    tag_29:\n      pop\n      pop\n      pop\n      pop\n      pop\n      dup2\n      jump\t// out\n        /* \"contracts/StringsExample.sol\":202:298  function setNewString(string memory nextString) public {... */\n    tag_18:\n        /* \"contracts/StringsExample.sol\":280:290  nextString */\n      dup1\n        /* \"contracts/StringsExample.sol\":268:277  newString */\n      0x01\n        /* \"contracts/StringsExample.sol\":268:290  newString = nextString */\n      swap1\n      dup1\n      mload\n      swap1\n      0x20\n      add\n      swap1\n      tag_33\n      swap3\n      swap2\n      swap1\n      tag_34\n      jump\t// in\n    tag_33:\n      pop\n        /* \"contracts/StringsExample.sol\":202:298  function setNewString(string memory nextString) public {... */\n      pop\n      jump\t// out\n        /* \"contracts/StringsExample.sol\":150:189  string public newString = \"Hello World\" */\n    tag_20:\n      0x01\n      dup1\n      sload\n      tag_35\n      swap1\n      tag_27\n      jump\t// in\n    tag_35:\n      dup1\n      0x1f\n      add\n      0x20\n      dup1\n      swap2\n      div\n      mul\n      0x20\n      add\n      mload(0x40)\n      swap1\n      dup2\n      add\n      0x40\n      mstore\n      dup1\n      swap3\n      swap2\n      swap1\n      dup2\n      dup2\n      mstore\n      0x20\n      add\n      dup3\n      dup1\n      sload\n      tag_36\n      swap1\n      tag_27\n      jump\t// in\n    tag_36:\n      dup1\n      iszero\n      tag_37\n      jumpi\n      dup1\n      0x1f\n      lt\n      tag_38\n      jumpi\n      0x0100\n      dup1\n      dup4\n      sload\n      div\n      mul\n      dup4\n      mstore\n      swap2\n      0x20\n      add\n      swap2\n      jump(tag_37)\n    tag_38:\n      dup3\n      add\n      swap2\n      swap1\n      0x00\n      mstore\n      keccak256(0x00, 0x20)\n      swap1\n    tag_39:\n      dup2\n      sload\n      dup2\n      mstore\n      swap1\n      0x01\n      add\n      swap1\n      0x20\n      add\n      dup1\n      dup4\n      gt\n      tag_39\n      jumpi\n      dup3\n      swap1\n      sub\n      0x1f\n      and\n      dup3\n      add\n      swap2\n    tag_37:\n      pop\n      pop\n      pop\n      pop\n      pop\n      dup2\n      jump\t// out\n    tag_34:\n      dup3\n      dup1\n      sload\n      tag_40\n      swap1\n      tag_27\n      jump\t// in\n    tag_40:\n      swap1\n      0x00\n      mstore\n      keccak256(0x00, 0x20)\n      swap1\n      0x1f\n      add\n      0x20\n      swap1\n      div\n      dup2\n      add\n      swap3\n      dup3\n      tag_42\n      jumpi\n      0x00\n      dup6\n      sstore\n      jump(tag_41)\n    tag_42:\n      dup3\n      0x1f\n      lt\n      tag_43\n      jumpi\n      dup1\n      mload\n      not(0xff)\n      and\n      dup4\n      dup1\n      add\n      or\n      dup6\n      sstore\n      jump(tag_41)\n    tag_43:\n      dup3\n      dup1\n      add\n      0x01\n      add\n      dup6\n      sstore\n      dup3\n      iszero\n      tag_41\n      jumpi\n      swap2\n      dup3\n      add\n    tag_44:\n      dup3\n      dup2\n      gt\n      iszero\n      tag_45\n      jumpi\n      dup3\n      mload\n      dup3\n      sstore\n      swap2\n      0x20\n      add\n      swap2\n      swap1\n      0x01\n      add\n      swap1\n      jump(tag_44)\n    tag_45:\n    tag_41:\n      pop\n      swap1\n      pop\n      tag_46\n      swap2\n      swap1\n      tag_47\n      jump\t// in\n    tag_46:\n      pop\n      swap1\n      jump\t// out\n    tag_47:\n    tag_48:\n      dup1\n      dup3\n      gt\n      iszero\n      tag_49\n      jumpi\n      0x00\n      dup2\n      0x00\n      swap1\n      sstore\n      pop\n      0x01\n      add\n      jump(tag_48)\n    tag_49:\n      pop\n      swap1\n      jump\t// out\n        /* \"#utility.yul\":7:97   */\n    tag_50:\n        /* \"#utility.yul\":41:48   */\n      0x00\n        /* \"#utility.yul\":84:89   */\n      dup2\n        /* \"#utility.yul\":77:90   */\n      iszero\n        /* \"#utility.yul\":70:91   */\n      iszero\n        /* \"#utility.yul\":59:91   */\n      swap1\n      pop\n        /* \"#utility.yul\":7:97   */\n      swap2\n      swap1\n      pop\n      jump\t// out\n        /* \"#utility.yul\":103:212   */\n    tag_51:\n        /* \"#utility.yul\":184:205   */\n      tag_76\n        /* \"#utility.yul\":199:204   */\n      dup2\n        /* \"#utility.yul\":184:205   */\n      tag_50\n      jump\t// in\n    tag_76:\n        /* \"#utility.yul\":179:182   */\n      dup3\n        /* \"#utility.yul\":172:206   */\n      mstore\n        /* \"#utility.yul\":103:212   */\n      pop\n      pop\n      jump\t// out\n        /* \"#utility.yul\":218:428   */\n    tag_10:\n        /* \"#utility.yul\":305:309   */\n      0x00\n        /* \"#utility.yul\":343:345   */\n      0x20\n        /* \"#utility.yul\":332:341   */\n      dup3\n        /* \"#utility.yul\":328:346   */\n      add\n        /* \"#utility.yul\":320:346   */\n      swap1\n      pop\n        /* \"#utility.yul\":356:421   */\n      tag_78\n        /* \"#utility.yul\":418:419   */\n      0x00\n        /* \"#utility.yul\":407:416   */\n      dup4\n        /* \"#utility.yul\":403:420   */\n      add\n        /* \"#utility.yul\":394:400   */\n      dup5\n        /* \"#utility.yul\":356:421   */\n      tag_51\n      jump\t// in\n    tag_78:\n        /* \"#utility.yul\":218:428   */\n      swap3\n      swap2\n      pop\n      pop\n      jump\t// out\n        /* \"#utility.yul\":434:533   */\n    tag_52:\n        /* \"#utility.yul\":486:492   */\n      0x00\n        /* \"#utility.yul\":520:525   */\n      dup2\n        /* \"#utility.yul\":514:526   */\n      mload\n        /* \"#utility.yul\":504:526   */\n      swap1\n      pop\n        /* \"#utility.yul\":434:533   */\n      swap2\n      swap1\n      pop\n      jump\t// out\n        /* \"#utility.yul\":539:708   */\n    tag_53:\n        /* \"#utility.yul\":623:634   */\n      0x00\n        /* \"#utility.yul\":657:663   */\n      dup3\n        /* \"#utility.yul\":652:655   */\n      dup3\n        /* \"#utility.yul\":645:664   */\n      mstore\n        /* \"#utility.yul\":697:701   */\n      0x20\n        /* \"#utility.yul\":692:695   */\n      dup3\n        /* \"#utility.yul\":688:702   */\n      add\n        /* \"#utility.yul\":673:702   */\n      swap1\n      pop\n        /* \"#utility.yul\":539:708   */\n      swap3\n      swap2\n      pop\n      pop\n      jump\t// out\n        /* \"#utility.yul\":714:1021   */\n    tag_54:\n        /* \"#utility.yul\":782:783   */\n      0x00\n        /* \"#utility.yul\":792:905   */\n    tag_82:\n        /* \"#utility.yul\":806:812   */\n      dup4\n        /* \"#utility.yul\":803:804   */\n      dup2\n        /* \"#utility.yul\":800:813   */\n      lt\n        /* \"#utility.yul\":792:905   */\n      iszero\n      tag_84\n      jumpi\n        /* \"#utility.yul\":891:892   */\n      dup1\n        /* \"#utility.yul\":886:889   */\n      dup3\n        /* \"#utility.yul\":882:893   */\n      add\n        /* \"#utility.yul\":876:894   */\n      mload\n        /* \"#utility.yul\":872:873   */\n      dup2\n        /* \"#utility.yul\":867:870   */\n      dup5\n        /* \"#utility.yul\":863:874   */\n      add\n        /* \"#utility.yul\":856:895   */\n      mstore\n        /* \"#utility.yul\":828:830   */\n      0x20\n        /* \"#utility.yul\":825:826   */\n      dup2\n        /* \"#utility.yul\":821:831   */\n      add\n        /* \"#utility.yul\":816:831   */\n      swap1\n      pop\n        /* \"#utility.yul\":792:905   */\n      jump(tag_82)\n    tag_84:\n        /* \"#utility.yul\":923:929   */\n      dup4\n        /* \"#utility.yul\":920:921   */\n      dup2\n        /* \"#utility.yul\":917:930   */\n      gt\n        /* \"#utility.yul\":914:1015   */\n      iszero\n      tag_85\n      jumpi\n        /* \"#utility.yul\":1003:1004   */\n      0x00\n        /* \"#utility.yul\":994:1000   */\n      dup5\n        /* \"#utility.yul\":989:992   */\n      dup5\n        /* \"#utility.yul\":985:1001   */\n      add\n        /* \"#utility.yul\":978:1005   */\n      mstore\n        /* \"#utility.yul\":914:1015   */\n    tag_85:\n        /* \"#utility.yul\":763:1021   */\n      pop\n        /* \"#utility.yul\":714:1021   */\n      pop\n      pop\n      pop\n      jump\t// out\n        /* \"#utility.yul\":1027:1129   */\n    tag_55:\n        /* \"#utility.yul\":1068:1074   */\n      0x00\n        /* \"#utility.yul\":1119:1121   */\n      0x1f\n        /* \"#utility.yul\":1115:1122   */\n      not\n        /* \"#utility.yul\":1110:1112   */\n      0x1f\n        /* \"#utility.yul\":1103:1108   */\n      dup4\n        /* \"#utility.yul\":1099:1113   */\n      add\n        /* \"#utility.yul\":1095:1123   */\n      and\n        /* \"#utility.yul\":1085:1123   */\n      swap1\n      pop\n        /* \"#utility.yul\":1027:1129   */\n      swap2\n      swap1\n      pop\n      jump\t// out\n        /* \"#utility.yul\":1135:1499   */\n    tag_56:\n        /* \"#utility.yul\":1223:1226   */\n      0x00\n        /* \"#utility.yul\":1251:1290   */\n      tag_88\n        /* \"#utility.yul\":1284:1289   */\n      dup3\n        /* \"#utility.yul\":1251:1290   */\n      tag_52\n      jump\t// in\n    tag_88:\n        /* \"#utility.yul\":1306:1377   */\n      tag_89\n        /* \"#utility.yul\":1370:1376   */\n      dup2\n        /* \"#utility.yul\":1365:1368   */\n      dup6\n        /* \"#utility.yul\":1306:1377   */\n      tag_53\n      jump\t// in\n    tag_89:\n        /* \"#utility.yul\":1299:1377   */\n      swap4\n      pop\n        /* \"#utility.yul\":1386:1438   */\n      tag_90\n        /* \"#utility.yul\":1431:1437   */\n      dup2\n        /* \"#utility.yul\":1426:1429   */\n      dup6\n        /* \"#utility.yul\":1419:1423   */\n      0x20\n        /* \"#utility.yul\":1412:1417   */\n      dup7\n        /* \"#utility.yul\":1408:1424   */\n      add\n        /* \"#utility.yul\":1386:1438   */\n      tag_54\n      jump\t// in\n    tag_90:\n        /* \"#utility.yul\":1463:1492   */\n      tag_91\n        /* \"#utility.yul\":1485:1491   */\n      dup2\n        /* \"#utility.yul\":1463:1492   */\n      tag_55\n      jump\t// in\n    tag_91:\n        /* \"#utility.yul\":1458:1461   */\n      dup5\n        /* \"#utility.yul\":1454:1493   */\n      add\n        /* \"#utility.yul\":1447:1493   */\n      swap2\n      pop\n        /* \"#utility.yul\":1227:1499   */\n      pop\n        /* \"#utility.yul\":1135:1499   */\n      swap3\n      swap2\n      pop\n      pop\n      jump\t// out\n        /* \"#utility.yul\":1505:1818   */\n    tag_14:\n        /* \"#utility.yul\":1618:1622   */\n      0x00\n        /* \"#utility.yul\":1656:1658   */\n      0x20\n        /* \"#utility.yul\":1645:1654   */\n      dup3\n        /* \"#utility.yul\":1641:1659   */\n      add\n        /* \"#utility.yul\":1633:1659   */\n      swap1\n      pop\n        /* \"#utility.yul\":1705:1714   */\n      dup2\n        /* \"#utility.yul\":1699:1703   */\n      dup2\n        /* \"#utility.yul\":1695:1715   */\n      sub\n        /* \"#utility.yul\":1691:1692   */\n      0x00\n        /* \"#utility.yul\":1680:1689   */\n      dup4\n        /* \"#utility.yul\":1676:1693   */\n      add\n        /* \"#utility.yul\":1669:1716   */\n      mstore\n        /* \"#utility.yul\":1733:1811   */\n      tag_93\n        /* \"#utility.yul\":1806:1810   */\n      dup2\n        /* \"#utility.yul\":1797:1803   */\n      dup5\n        /* \"#utility.yul\":1733:1811   */\n      tag_56\n      jump\t// in\n    tag_93:\n        /* \"#utility.yul\":1725:1811   */\n      swap1\n      pop\n        /* \"#utility.yul\":1505:1818   */\n      swap3\n      swap2\n      pop\n      pop\n      jump\t// out\n        /* \"#utility.yul\":1824:1899   */\n    tag_57:\n        /* \"#utility.yul\":1857:1863   */\n      0x00\n        /* \"#utility.yul\":1890:1892   */\n      0x40\n        /* \"#utility.yul\":1884:1893   */\n      mload\n        /* \"#utility.yul\":1874:1893   */\n      swap1\n      pop\n        /* \"#utility.yul\":1824:1899   */\n      swap1\n      jump\t// out\n        /* \"#utility.yul\":1905:2022   */\n    tag_58:\n        /* \"#utility.yul\":2014:2015   */\n      0x00\n        /* \"#utility.yul\":2011:2012   */\n      dup1\n        /* \"#utility.yul\":2004:2016   */\n      revert\n        /* \"#utility.yul\":2028:2145   */\n    tag_59:\n        /* \"#utility.yul\":2137:2138   */\n      0x00\n        /* \"#utility.yul\":2134:2135   */\n      dup1\n        /* \"#utility.yul\":2127:2139   */\n      revert\n        /* \"#utility.yul\":2151:2268   */\n    tag_60:\n        /* \"#utility.yul\":2260:2261   */\n      0x00\n        /* \"#utility.yul\":2257:2258   */\n      dup1\n        /* \"#utility.yul\":2250:2262   */\n      revert\n        /* \"#utility.yul\":2274:2391   */\n    tag_61:\n        /* \"#utility.yul\":2383:2384   */\n      0x00\n        /* \"#utility.yul\":2380:2381   */\n      dup1\n        /* \"#utility.yul\":2373:2385   */\n      revert\n        /* \"#utility.yul\":2397:2577   */\n    tag_62:\n        /* \"#utility.yul\":2445:2522   */\n      0x4e487b7100000000000000000000000000000000000000000000000000000000\n        /* \"#utility.yul\":2442:2443   */\n      0x00\n        /* \"#utility.yul\":2435:2523   */\n      mstore\n        /* \"#utility.yul\":2542:2546   */\n      0x41\n        /* \"#utility.yul\":2539:2540   */\n      0x04\n        /* \"#utility.yul\":2532:2547   */\n      mstore\n        /* \"#utility.yul\":2566:2570   */\n      0x24\n        /* \"#utility.yul\":2563:2564   */\n      0x00\n        /* \"#utility.yul\":2556:2571   */\n      revert\n        /* \"#utility.yul\":2583:2864   */\n    tag_63:\n        /* \"#utility.yul\":2666:2693   */\n      tag_101\n        /* \"#utility.yul\":2688:2692   */\n      dup3\n        /* \"#utility.yul\":2666:2693   */\n      tag_55\n      jump\t// in\n    tag_101:\n        /* \"#utility.yul\":2658:2664   */\n      dup2\n        /* \"#utility.yul\":2654:2694   */\n      add\n        /* \"#utility.yul\":2796:2802   */\n      dup2\n        /* \"#utility.yul\":2784:2794   */\n      dup2\n        /* \"#utility.yul\":2781:2803   */\n      lt\n        /* \"#utility.yul\":2760:2778   */\n      0xffffffffffffffff\n        /* \"#utility.yul\":2748:2758   */\n      dup3\n        /* \"#utility.yul\":2745:2779   */\n      gt\n        /* \"#utility.yul\":2742:2804   */\n      or\n        /* \"#utility.yul\":2739:2827   */\n      iszero\n      tag_102\n      jumpi\n        /* \"#utility.yul\":2807:2825   */\n      tag_103\n      tag_62\n      jump\t// in\n    tag_103:\n        /* \"#utility.yul\":2739:2827   */\n    tag_102:\n        /* \"#utility.yul\":2847:2857   */\n      dup1\n        /* \"#utility.yul\":2843:2845   */\n      0x40\n        /* \"#utility.yul\":2836:2858   */\n      mstore\n        /* \"#utility.yul\":2626:2864   */\n      pop\n        /* \"#utility.yul\":2583:2864   */\n      pop\n      pop\n      jump\t// out\n        /* \"#utility.yul\":2870:2999   */\n    tag_64:\n        /* \"#utility.yul\":2904:2910   */\n      0x00\n        /* \"#utility.yul\":2931:2951   */\n      tag_105\n      tag_57\n      jump\t// in\n    tag_105:\n        /* \"#utility.yul\":2921:2951   */\n      swap1\n      pop\n        /* \"#utility.yul\":2960:2993   */\n      tag_106\n        /* \"#utility.yul\":2988:2992   */\n      dup3\n        /* \"#utility.yul\":2980:2986   */\n      dup3\n        /* \"#utility.yul\":2960:2993   */\n      tag_63\n      jump\t// in\n    tag_106:\n        /* \"#utility.yul\":2870:2999   */\n      swap2\n      swap1\n      pop\n      jump\t// out\n        /* \"#utility.yul\":3005:3313   */\n    tag_65:\n        /* \"#utility.yul\":3067:3071   */\n      0x00\n        /* \"#utility.yul\":3157:3175   */\n      0xffffffffffffffff\n        /* \"#utility.yul\":3149:3155   */\n      dup3\n        /* \"#utility.yul\":3146:3176   */\n      gt\n        /* \"#utility.yul\":3143:3199   */\n      iszero\n      tag_108\n      jumpi\n        /* \"#utility.yul\":3179:3197   */\n      tag_109\n      tag_62\n      jump\t// in\n    tag_109:\n        /* \"#utility.yul\":3143:3199   */\n    tag_108:\n        /* \"#utility.yul\":3217:3246   */\n      tag_110\n        /* \"#utility.yul\":3239:3245   */\n      dup3\n        /* \"#utility.yul\":3217:3246   */\n      tag_55\n      jump\t// in\n    tag_110:\n        /* \"#utility.yul\":3209:3246   */\n      swap1\n      pop\n        /* \"#utility.yul\":3301:3305   */\n      0x20\n        /* \"#utility.yul\":3295:3299   */\n      dup2\n        /* \"#utility.yul\":3291:3306   */\n      add\n        /* \"#utility.yul\":3283:3306   */\n      swap1\n      pop\n        /* \"#utility.yul\":3005:3313   */\n      swap2\n      swap1\n      pop\n      jump\t// out\n        /* \"#utility.yul\":3319:3473   */\n    tag_66:\n        /* \"#utility.yul\":3403:3409   */\n      dup3\n        /* \"#utility.yul\":3398:3401   */\n      dup2\n        /* \"#utility.yul\":3393:3396   */\n      dup4\n        /* \"#utility.yul\":3380:3410   */\n      calldatacopy\n        /* \"#utility.yul\":3465:3466   */\n      0x00\n        /* \"#utility.yul\":3456:3462   */\n      dup4\n        /* \"#utility.yul\":3451:3454   */\n      dup4\n        /* \"#utility.yul\":3447:3463   */\n      add\n        /* \"#utility.yul\":3440:3467   */\n      mstore\n        /* \"#utility.yul\":3319:3473   */\n      pop\n      pop\n      pop\n      jump\t// out\n        /* \"#utility.yul\":3479:3891   */\n    tag_67:\n        /* \"#utility.yul\":3557:3562   */\n      0x00\n        /* \"#utility.yul\":3582:3648   */\n      tag_113\n        /* \"#utility.yul\":3598:3647   */\n      tag_114\n        /* \"#utility.yul\":3640:3646   */\n      dup5\n        /* \"#utility.yul\":3598:3647   */\n      tag_65\n      jump\t// in\n    tag_114:\n        /* \"#utility.yul\":3582:3648   */\n      tag_64\n      jump\t// in\n    tag_113:\n        /* \"#utility.yul\":3573:3648   */\n      swap1\n      pop\n        /* \"#utility.yul\":3671:3677   */\n      dup3\n        /* \"#utility.yul\":3664:3669   */\n      dup2\n        /* \"#utility.yul\":3657:3678   */\n      mstore\n        /* \"#utility.yul\":3709:3713   */\n      0x20\n        /* \"#utility.yul\":3702:3707   */\n      dup2\n        /* \"#utility.yul\":3698:3714   */\n      add\n        /* \"#utility.yul\":3747:3750   */\n      dup5\n        /* \"#utility.yul\":3738:3744   */\n      dup5\n        /* \"#utility.yul\":3733:3736   */\n      dup5\n        /* \"#utility.yul\":3729:3745   */\n      add\n        /* \"#utility.yul\":3726:3751   */\n      gt\n        /* \"#utility.yul\":3723:3835   */\n      iszero\n      tag_115\n      jumpi\n        /* \"#utility.yul\":3754:3833   */\n      tag_116\n      tag_61\n      jump\t// in\n    tag_116:\n        /* \"#utility.yul\":3723:3835   */\n    tag_115:\n        /* \"#utility.yul\":3844:3885   */\n      tag_117\n        /* \"#utility.yul\":3878:3884   */\n      dup5\n        /* \"#utility.yul\":3873:3876   */\n      dup3\n        /* \"#utility.yul\":3868:3871   */\n      dup6\n        /* \"#utility.yul\":3844:3885   */\n      tag_66\n      jump\t// in\n    tag_117:\n        /* \"#utility.yul\":3563:3891   */\n      pop\n        /* \"#utility.yul\":3479:3891   */\n      swap4\n      swap3\n      pop\n      pop\n      pop\n      jump\t// out\n        /* \"#utility.yul\":3911:4251   */\n    tag_68:\n        /* \"#utility.yul\":3967:3972   */\n      0x00\n        /* \"#utility.yul\":4016:4019   */\n      dup3\n        /* \"#utility.yul\":4009:4013   */\n      0x1f\n        /* \"#utility.yul\":4001:4007   */\n      dup4\n        /* \"#utility.yul\":3997:4014   */\n      add\n        /* \"#utility.yul\":3993:4020   */\n      slt\n        /* \"#utility.yul\":3983:4105   */\n      tag_119\n      jumpi\n        /* \"#utility.yul\":4024:4103   */\n      tag_120\n      tag_60\n      jump\t// in\n    tag_120:\n        /* \"#utility.yul\":3983:4105   */\n    tag_119:\n        /* \"#utility.yul\":4141:4147   */\n      dup2\n        /* \"#utility.yul\":4128:4148   */\n      calldataload\n        /* \"#utility.yul\":4166:4245   */\n      tag_121\n        /* \"#utility.yul\":4241:4244   */\n      dup5\n        /* \"#utility.yul\":4233:4239   */\n      dup3\n        /* \"#utility.yul\":4226:4230   */\n      0x20\n        /* \"#utility.yul\":4218:4224   */\n      dup7\n        /* \"#utility.yul\":4214:4231   */\n      add\n        /* \"#utility.yul\":4166:4245   */\n      tag_67\n      jump\t// in\n    tag_121:\n        /* \"#utility.yul\":4157:4245   */\n      swap2\n      pop\n        /* \"#utility.yul\":3973:4251   */\n      pop\n        /* \"#utility.yul\":3911:4251   */\n      swap3\n      swap2\n      pop\n      pop\n      jump\t// out\n        /* \"#utility.yul\":4257:4766   */\n    tag_17:\n        /* \"#utility.yul\":4326:4332   */\n      0x00\n        /* \"#utility.yul\":4375:4377   */\n      0x20\n        /* \"#utility.yul\":4363:4372   */\n      dup3\n        /* \"#utility.yul\":4354:4361   */\n      dup5\n        /* \"#utility.yul\":4350:4373   */\n      sub\n        /* \"#utility.yul\":4346:4378   */\n      slt\n        /* \"#utility.yul\":4343:4462   */\n      iszero\n      tag_123\n      jumpi\n        /* \"#utility.yul\":4381:4460   */\n      tag_124\n      tag_58\n      jump\t// in\n    tag_124:\n        /* \"#utility.yul\":4343:4462   */\n    tag_123:\n        /* \"#utility.yul\":4529:4530   */\n      0x00\n        /* \"#utility.yul\":4518:4527   */\n      dup3\n        /* \"#utility.yul\":4514:4531   */\n      add\n        /* \"#utility.yul\":4501:4532   */\n      calldataload\n        /* \"#utility.yul\":4559:4577   */\n      0xffffffffffffffff\n        /* \"#utility.yul\":4551:4557   */\n      dup2\n        /* \"#utility.yul\":4548:4578   */\n      gt\n        /* \"#utility.yul\":4545:4662   */\n      iszero\n      tag_125\n      jumpi\n        /* \"#utility.yul\":4581:4660   */\n      tag_126\n      tag_59\n      jump\t// in\n    tag_126:\n        /* \"#utility.yul\":4545:4662   */\n    tag_125:\n        /* \"#utility.yul\":4686:4749   */\n      tag_127\n        /* \"#utility.yul\":4741:4748   */\n      dup5\n        /* \"#utility.yul\":4732:4738   */\n      dup3\n        /* \"#utility.yul\":4721:4730   */\n      dup6\n        /* \"#utility.yul\":4717:4739   */\n      add\n        /* \"#utility.yul\":4686:4749   */\n      tag_68\n      jump\t// in\n    tag_127:\n        /* \"#utility.yul\":4676:4749   */\n      swap2\n      pop\n        /* \"#utility.yul\":4472:4759   */\n      pop\n        /* \"#utility.yul\":4257:4766   */\n      swap3\n      swap2\n      pop\n      pop\n      jump\t// out\n        /* \"#utility.yul\":4772:4952   */\n    tag_69:\n        /* \"#utility.yul\":4820:4897   */\n      0x4e487b7100000000000000000000000000000000000000000000000000000000\n        /* \"#utility.yul\":4817:4818   */\n      0x00\n        /* \"#utility.yul\":4810:4898   */\n      mstore\n        /* \"#utility.yul\":4917:4921   */\n      0x22\n        /* \"#utility.yul\":4914:4915   */\n      0x04\n        /* \"#utility.yul\":4907:4922   */\n      mstore\n        /* \"#utility.yul\":4941:4945   */\n      0x24\n        /* \"#utility.yul\":4938:4939   */\n      0x00\n        /* \"#utility.yul\":4931:4946   */\n      revert\n        /* \"#utility.yul\":4958:5278   */\n    tag_27:\n        /* \"#utility.yul\":5002:5008   */\n      0x00\n        /* \"#utility.yul\":5039:5040   */\n      0x02\n        /* \"#utility.yul\":5033:5037   */\n      dup3\n        /* \"#utility.yul\":5029:5041   */\n      div\n        /* \"#utility.yul\":5019:5041   */\n      swap1\n      pop\n        /* \"#utility.yul\":5086:5087   */\n      0x01\n        /* \"#utility.yul\":5080:5084   */\n      dup3\n        /* \"#utility.yul\":5076:5088   */\n      and\n        /* \"#utility.yul\":5107:5125   */\n      dup1\n        /* \"#utility.yul\":5097:5178   */\n      tag_130\n      jumpi\n        /* \"#utility.yul\":5163:5167   */\n      0x7f\n        /* \"#utility.yul\":5155:5161   */\n      dup3\n        /* \"#utility.yul\":5151:5168   */\n      and\n        /* \"#utility.yul\":5141:5168   */\n      swap2\n      pop\n        /* \"#utility.yul\":5097:5178   */\n    tag_130:\n        /* \"#utility.yul\":5225:5227   */\n      0x20\n        /* \"#utility.yul\":5217:5223   */\n      dup3\n        /* \"#utility.yul\":5214:5228   */\n      lt\n        /* \"#utility.yul\":5194:5212   */\n      dup2\n        /* \"#utility.yul\":5191:5229   */\n      sub\n        /* \"#utility.yul\":5188:5272   */\n      tag_131\n      jumpi\n        /* \"#utility.yul\":5244:5262   */\n      tag_132\n      tag_69\n      jump\t// in\n    tag_132:\n        /* \"#utility.yul\":5188:5272   */\n    tag_131:\n        /* \"#utility.yul\":5009:5278   */\n      pop\n        /* \"#utility.yul\":4958:5278   */\n      swap2\n      swap1\n      pop\n      jump\t// out\n        /* \"#utility.yul\":5284:5432   */\n    tag_70:\n        /* \"#utility.yul\":5386:5397   */\n      0x00\n        /* \"#utility.yul\":5423:5426   */\n      dup2\n        /* \"#utility.yul\":5408:5426   */\n      swap1\n      pop\n        /* \"#utility.yul\":5284:5432   */\n      swap3\n      swap2\n      pop\n      pop\n      jump\t// out\n        /* \"#utility.yul\":5438:5579   */\n    tag_71:\n        /* \"#utility.yul\":5487:5491   */\n      0x00\n        /* \"#utility.yul\":5510:5513   */\n      dup2\n        /* \"#utility.yul\":5502:5513   */\n      swap1\n      pop\n        /* \"#utility.yul\":5533:5536   */\n      dup2\n        /* \"#utility.yul\":5530:5531   */\n      0x00\n        /* \"#utility.yul\":5523:5537   */\n      mstore\n        /* \"#utility.yul\":5567:5571   */\n      0x20\n        /* \"#utility.yul\":5564:5565   */\n      0x00\n        /* \"#utility.yul\":5554:5572   */\n      keccak256\n        /* \"#utility.yul\":5546:5572   */\n      swap1\n      pop\n        /* \"#utility.yul\":5438:5579   */\n      swap2\n      swap1\n      pop\n      jump\t// out\n        /* \"#utility.yul\":5609:6454   */\n    tag_72:\n        /* \"#utility.yul\":5712:5715   */\n      0x00\n        /* \"#utility.yul\":5749:5754   */\n      dup2\n        /* \"#utility.yul\":5743:5755   */\n      sload\n        /* \"#utility.yul\":5778:5814   */\n      tag_136\n        /* \"#utility.yul\":5804:5813   */\n      dup2\n        /* \"#utility.yul\":5778:5814   */\n      tag_27\n      jump\t// in\n    tag_136:\n        /* \"#utility.yul\":5830:5919   */\n      tag_137\n        /* \"#utility.yul\":5912:5918   */\n      dup2\n        /* \"#utility.yul\":5907:5910   */\n      dup7\n        /* \"#utility.yul\":5830:5919   */\n      tag_70\n      jump\t// in\n    tag_137:\n        /* \"#utility.yul\":5823:5919   */\n      swap5\n      pop\n        /* \"#utility.yul\":5950:5951   */\n      0x01\n        /* \"#utility.yul\":5939:5948   */\n      dup3\n        /* \"#utility.yul\":5935:5952   */\n      and\n        /* \"#utility.yul\":5966:5967   */\n      0x00\n        /* \"#utility.yul\":5961:6098   */\n      dup2\n      eq\n      tag_139\n      jumpi\n        /* \"#utility.yul\":6112:6113   */\n      0x01\n        /* \"#utility.yul\":6107:6448   */\n      dup2\n      eq\n      tag_140\n      jumpi\n        /* \"#utility.yul\":5928:6448   */\n      jump(tag_138)\n        /* \"#utility.yul\":5961:6098   */\n    tag_139:\n        /* \"#utility.yul\":6045:6049   */\n      0xff\n        /* \"#utility.yul\":6041:6050   */\n      not\n        /* \"#utility.yul\":6030:6039   */\n      dup4\n        /* \"#utility.yul\":6026:6051   */\n      and\n        /* \"#utility.yul\":6021:6024   */\n      dup7\n        /* \"#utility.yul\":6014:6052   */\n      mstore\n        /* \"#utility.yul\":6081:6087   */\n      dup2\n        /* \"#utility.yul\":6076:6079   */\n      dup7\n        /* \"#utility.yul\":6072:6088   */\n      add\n        /* \"#utility.yul\":6065:6088   */\n      swap4\n      pop\n        /* \"#utility.yul\":5961:6098   */\n      jump(tag_138)\n        /* \"#utility.yul\":6107:6448   */\n    tag_140:\n        /* \"#utility.yul\":6174:6212   */\n      tag_141\n        /* \"#utility.yul\":6206:6211   */\n      dup6\n        /* \"#utility.yul\":6174:6212   */\n      tag_71\n      jump\t// in\n    tag_141:\n        /* \"#utility.yul\":6234:6235   */\n      0x00\n        /* \"#utility.yul\":6248:6402   */\n    tag_142:\n        /* \"#utility.yul\":6262:6268   */\n      dup4\n        /* \"#utility.yul\":6259:6260   */\n      dup2\n        /* \"#utility.yul\":6256:6269   */\n      lt\n        /* \"#utility.yul\":6248:6402   */\n      iszero\n      tag_144\n      jumpi\n        /* \"#utility.yul\":6336:6343   */\n      dup2\n        /* \"#utility.yul\":6330:6344   */\n      sload\n        /* \"#utility.yul\":6326:6327   */\n      dup2\n        /* \"#utility.yul\":6321:6324   */\n      dup10\n        /* \"#utility.yul\":6317:6328   */\n      add\n        /* \"#utility.yul\":6310:6345   */\n      mstore\n        /* \"#utility.yul\":6386:6387   */\n      0x01\n        /* \"#utility.yul\":6377:6384   */\n      dup3\n        /* \"#utility.yul\":6373:6388   */\n      add\n        /* \"#utility.yul\":6362:6388   */\n      swap2\n      pop\n        /* \"#utility.yul\":6284:6288   */\n      0x20\n        /* \"#utility.yul\":6281:6282   */\n      dup2\n        /* \"#utility.yul\":6277:6289   */\n      add\n        /* \"#utility.yul\":6272:6289   */\n      swap1\n      pop\n        /* \"#utility.yul\":6248:6402   */\n      jump(tag_142)\n    tag_144:\n        /* \"#utility.yul\":6431:6437   */\n      dup4\n        /* \"#utility.yul\":6426:6429   */\n      dup9\n        /* \"#utility.yul\":6422:6438   */\n      add\n        /* \"#utility.yul\":6415:6438   */\n      swap6\n      pop\n        /* \"#utility.yul\":6114:6448   */\n      pop\n      pop\n        /* \"#utility.yul\":5928:6448   */\n    tag_138:\n      pop\n        /* \"#utility.yul\":5716:6454   */\n      pop\n      pop\n        /* \"#utility.yul\":5609:6454   */\n      swap3\n      swap2\n      pop\n      pop\n      jump\t// out\n        /* \"#utility.yul\":6460:6729   */\n    tag_24:\n        /* \"#utility.yul\":6589:6592   */\n      0x00\n        /* \"#utility.yul\":6611:6703   */\n      tag_146\n        /* \"#utility.yul\":6699:6702   */\n      dup3\n        /* \"#utility.yul\":6690:6696   */\n      dup5\n        /* \"#utility.yul\":6611:6703   */\n      tag_72\n      jump\t// in\n    tag_146:\n        /* \"#utility.yul\":6604:6703   */\n      swap2\n      pop\n        /* \"#utility.yul\":6720:6723   */\n      dup2\n        /* \"#utility.yul\":6713:6723   */\n      swap1\n      pop\n        /* \"#utility.yul\":6460:6729   */\n      swap3\n      swap2\n      pop\n      pop\n      jump\t// out\n\n    auxdata: 0xa2646970667358221220bbef7d902ed55cf6fd38a950e0ccfc27ff23c3a18e6c71cc3e0cd1ce7e7eb25864736f6c634300080e0033\n}\n",
				"bytecode": {
					"linkReferences": {},
					"object": "60806040526040518060400160405280600b81526020017f48656c6c6f20576f726c640000000000000000000000000000000000000000008152506000908051906020019061004f9291906100ae565b506040518060400160405280600b81526020017f48656c6c6f20576f726c640000000000000000000000000000000000000000008152506001908051906020019061009b9291906100ae565b503480156100a857600080fd5b506101b1565b8280546100ba90610180565b90600052602060002090601f0160209004810192826100dc5760008555610123565b82601f106100f557805160ff1916838001178555610123565b82800160010185558215610123579182015b82811115610122578251825591602001919060010190610107565b5b5090506101309190610134565b5090565b5b8082111561014d576000816000905550600101610135565b5090565b7f4e487b7100000000000000000000000000000000000000000000000000000000600052602260045260246000fd5b6000600282049050600182168061019857607f821691505b6020821081036101ab576101aa610151565b5b50919050565b6106c7806101c06000396000f3fe608060405234801561001057600080fd5b506004361061004c5760003560e01c80631abd9de414610051578063492bfa181461006f5780638380f98d1461008d578063a9c9c2a1146100a9575b600080fd5b6100596100c7565b6040516100669190610313565b60405180910390f35b61007761011f565b60405161008491906103c7565b60405180910390f35b6100a760048036038101906100a29190610532565b6101ad565b005b6100b16101c7565b6040516100be91906103c7565b60405180910390f35b600060016040516020016100db919061067a565b604051602081830303815290604052805190602001206000604051602001610103919061067a565b6040516020818303038152906040528051906020012014905090565b6000805461012c906105aa565b80601f0160208091040260200160405190810160405280929190818152602001828054610158906105aa565b80156101a55780601f1061017a576101008083540402835291602001916101a5565b820191906000526020600020905b81548152906001019060200180831161018857829003601f168201915b505050505081565b80600190805190602001906101c3929190610255565b5050565b600180546101d4906105aa565b80601f0160208091040260200160405190810160405280929190818152602001828054610200906105aa565b801561024d5780601f106102225761010080835404028352916020019161024d565b820191906000526020600020905b81548152906001019060200180831161023057829003601f168201915b505050505081565b828054610261906105aa565b90600052602060002090601f01602090048101928261028357600085556102ca565b82601f1061029c57805160ff19168380011785556102ca565b828001600101855582156102ca579182015b828111156102c95782518255916020019190600101906102ae565b5b5090506102d791906102db565b5090565b5b808211156102f45760008160009055506001016102dc565b5090565b60008115159050919050565b61030d816102f8565b82525050565b60006020820190506103286000830184610304565b92915050565b600081519050919050565b600082825260208201905092915050565b60005b8381101561036857808201518184015260208101905061034d565b83811115610377576000848401525b50505050565b6000601f19601f8301169050919050565b60006103998261032e565b6103a38185610339565b93506103b381856020860161034a565b6103bc8161037d565b840191505092915050565b600060208201905081810360008301526103e1818461038e565b905092915050565b6000604051905090565b600080fd5b600080fd5b600080fd5b600080fd5b7f4e487b7100000000000000000000000000000000000000000000000000000000600052604160045260246000fd5b61043f8261037d565b810181811067ffffffffffffffff8211171561045e5761045d610407565b5b80604052505050565b60006104716103e9565b905061047d8282610436565b919050565b600067ffffffffffffffff82111561049d5761049c610407565b5b6104a68261037d565b9050602081019050919050565b82818337600083830152505050565b60006104d56104d084610482565b610467565b9050828152602081018484840111156104f1576104f0610402565b5b6104fc8482856104b3565b509392505050565b600082601f830112610519576105186103fd565b5b81356105298482602086016104c2565b91505092915050565b600060208284031215610548576105476103f3565b5b600082013567ffffffffffffffff811115610566576105656103f8565b5b61057284828501610504565b91505092915050565b7f4e487b7100000000000000000000000000000000000000000000000000000000600052602260045260246000fd5b600060028204905060018216806105c257607f821691505b6020821081036105d5576105d461057b565b5b50919050565b600081905092915050565b60008190508160005260206000209050919050565b60008154610608816105aa565b61061281866105db565b9450600182166000811461062d576001811461063e57610671565b60ff19831686528186019350610671565b610647856105e6565b60005b838110156106695781548189015260018201915060208101905061064a565b838801955050505b50505092915050565b600061068682846105fb565b91508190509291505056fea2646970667358221220bbef7d902ed55cf6fd38a950e0ccfc27ff23c3a18e6c71cc3e0cd1ce7e7eb25864736f6c634300080e0033",
					"opcodes": "PUSH1 0x80 PUSH1 0x40 MSTORE PUSH1 0x40 MLOAD DUP1 PUSH1 0x40 ADD PUSH1 0x40 MSTORE DUP1 PUSH1 0xB DUP2 MSTORE PUSH1 0x20 ADD PUSH32 0x48656C6C6F20576F726C64000000000000000000000000000000000000000000 DUP2 MSTORE POP PUSH1 0x0 SWAP1 DUP1 MLOAD SWAP1 PUSH1 0x20 ADD SWAP1 PUSH2 0x4F SWAP3 SWAP2 SWAP1 PUSH2 0xAE JUMP JUMPDEST POP PUSH1 0x40 MLOAD DUP1 PUSH1 0x40 ADD PUSH1 0x40 MSTORE DUP1 PUSH1 0xB DUP2 MSTORE PUSH1 0x20 ADD PUSH32 0x48656C6C6F20576F726C64000000000000000000000000000000000000000000 DUP2 MSTORE POP PUSH1 0x1 SWAP1 DUP1 MLOAD SWAP1 PUSH1 0x20 ADD SWAP1 PUSH2 0x9B SWAP3 SWAP2 SWAP1 PUSH2 0xAE JUMP JUMPDEST POP CALLVALUE DUP1 ISZERO PUSH2 0xA8 JUMPI PUSH1 0x0 DUP1 REVERT JUMPDEST POP PUSH2 0x1B1 JUMP JUMPDEST DUP3 DUP1 SLOAD PUSH2 0xBA SWAP1 PUSH2 0x180 JUMP JUMPDEST SWAP1 PUSH1 0x0 MSTORE PUSH1 0x20 PUSH1 0x0 KECCAK256 SWAP1 PUSH1 0x1F ADD PUSH1 0x20 SWAP1 DIV DUP2 ADD SWAP3 DUP3 PUSH2 0xDC JUMPI PUSH1 0x0 DUP6 SSTORE PUSH2 0x123 JUMP JUMPDEST DUP3 PUSH1 0x1F LT PUSH2 0xF5 JUMPI DUP1 MLOAD PUSH1 0xFF NOT AND DUP4 DUP1 ADD OR DUP6 SSTORE PUSH2 0x123 JUMP JUMPDEST DUP3 DUP1 ADD PUSH1 0x1 ADD DUP6 SSTORE DUP3 ISZERO PUSH2 0x123 JUMPI SWAP2 DUP3 ADD JUMPDEST DUP3 DUP2 GT ISZERO PUSH2 0x122 JUMPI DUP3 MLOAD DUP3 SSTORE SWAP2 PUSH1 0x20 ADD SWAP2 SWAP1 PUSH1 0x1 ADD SWAP1 PUSH2 0x107 JUMP JUMPDEST JUMPDEST POP SWAP1 POP PUSH2 0x130 SWAP2 SWAP1 PUSH2 0x134 JUMP JUMPDEST POP SWAP1 JUMP JUMPDEST JUMPDEST DUP1 DUP3 GT ISZERO PUSH2 0x14D JUMPI PUSH1 0x0 DUP2 PUSH1 0x0 SWAP1 SSTORE POP PUSH1 0x1 ADD PUSH2 0x135 JUMP JUMPDEST POP SWAP1 JUMP JUMPDEST PUSH32 0x4E487B7100000000000000000000000000000000000000000000000000000000 PUSH1 0x0 MSTORE PUSH1 0x22 PUSH1 0x4 MSTORE PUSH1 0x24 PUSH1 0x0 REVERT JUMPDEST PUSH1 0x0 PUSH1 0x2 DUP3 DIV SWAP1 POP PUSH1 0x1 DUP3 AND DUP1 PUSH2 0x198 JUMPI PUSH1 0x7F DUP3 AND SWAP2 POP JUMPDEST PUSH1 0x20 DUP3 LT DUP2 SUB PUSH2 0x1AB JUMPI PUSH2 0x1AA PUSH2 0x151 JUMP JUMPDEST JUMPDEST POP SWAP2 SWAP1 POP JUMP JUMPDEST PUSH2 0x6C7 DUP1 PUSH2 0x1C0 PUSH1 0x0 CODECOPY PUSH1 0x0 RETURN INVALID PUSH1 0x80 PUSH1 0x40 MSTORE CALLVALUE DUP1 ISZERO PUSH2 0x10 JUMPI PUSH1 0x0 DUP1 REVERT JUMPDEST POP PUSH1 0x4 CALLDATASIZE LT PUSH2 0x4C JUMPI PUSH1 0x0 CALLDATALOAD PUSH1 0xE0 SHR DUP1 PUSH4 0x1ABD9DE4 EQ PUSH2 0x51 JUMPI DUP1 PUSH4 0x492BFA18 EQ PUSH2 0x6F JUMPI DUP1 PUSH4 0x8380F98D EQ PUSH2 0x8D JUMPI DUP1 PUSH4 0xA9C9C2A1 EQ PUSH2 0xA9 JUMPI JUMPDEST PUSH1 0x0 DUP1 REVERT JUMPDEST PUSH2 0x59 PUSH2 0xC7 JUMP JUMPDEST PUSH1 0x40 MLOAD PUSH2 0x66 SWAP2 SWAP1 PUSH2 0x313 JUMP JUMPDEST PUSH1 0x40 MLOAD DUP1 SWAP2 SUB SWAP1 RETURN JUMPDEST PUSH2 0x77 PUSH2 0x11F JUMP JUMPDEST PUSH1 0x40 MLOAD PUSH2 0x84 SWAP2 SWAP1 PUSH2 0x3C7 JUMP JUMPDEST PUSH1 0x40 MLOAD DUP1 SWAP2 SUB SWAP1 RETURN JUMPDEST PUSH2 0xA7 PUSH1 0x4 DUP1 CALLDATASIZE SUB DUP2 ADD SWAP1 PUSH2 0xA2 SWAP2 SWAP1 PUSH2 0x532 JUMP JUMPDEST PUSH2 0x1AD JUMP JUMPDEST STOP JUMPDEST PUSH2 0xB1 PUSH2 0x1C7 JUMP JUMPDEST PUSH1 0x40 MLOAD PUSH2 0xBE SWAP2 SWAP1 PUSH2 0x3C7 JUMP JUMPDEST PUSH1 0x40 MLOAD DUP1 SWAP2 SUB SWAP1 RETURN JUMPDEST PUSH1 0x0 PUSH1 0x1 PUSH1 0x40 MLOAD PUSH1 0x20 ADD PUSH2 0xDB SWAP2 SWAP1 PUSH2 0x67A JUMP JUMPDEST PUSH1 0x40 MLOAD PUSH1 0x20 DUP2 DUP4 SUB SUB DUP2 MSTORE SWAP1 PUSH1 0x40 MSTORE DUP1 MLOAD SWAP1 PUSH1 0x20 ADD KECCAK256 PUSH1 0x0 PUSH1 0x40 MLOAD PUSH1 0x20 ADD PUSH2 0x103 SWAP2 SWAP1 PUSH2 0x67A JUMP JUMPDEST PUSH1 0x40 MLOAD PUSH1 0x20 DUP2 DUP4 SUB SUB DUP2 MSTORE SWAP1 PUSH1 0x40 MSTORE DUP1 MLOAD SWAP1 PUSH1 0x20 ADD KECCAK256 EQ SWAP1 POP SWAP1 JUMP JUMPDEST PUSH1 0x0 DUP1 SLOAD PUSH2 0x12C SWAP1 PUSH2 0x5AA JUMP JUMPDEST DUP1 PUSH1 0x1F ADD PUSH1 0x20 DUP1 SWAP2 DIV MUL PUSH1 0x20 ADD PUSH1 0x40 MLOAD SWAP1 DUP2 ADD PUSH1 0x40 MSTORE DUP1 SWAP3 SWAP2 SWAP1 DUP2 DUP2 MSTORE PUSH1 0x20 ADD DUP3 DUP1 SLOAD PUSH2 0x158 SWAP1 PUSH2 0x5AA JUMP JUMPDEST DUP1 ISZERO PUSH2 0x1A5 JUMPI DUP1 PUSH1 0x1F LT PUSH2 0x17A JUMPI PUSH2 0x100 DUP1 DUP4 SLOAD DIV MUL DUP4 MSTORE SWAP2 PUSH1 0x20 ADD SWAP2 PUSH2 0x1A5 JUMP JUMPDEST DUP3 ADD SWAP2 SWAP1 PUSH1 0x0 MSTORE PUSH1 0x20 PUSH1 0x0 KECCAK256 SWAP1 JUMPDEST DUP2 SLOAD DUP2 MSTORE SWAP1 PUSH1 0x1 ADD SWAP1 PUSH1 0x20 ADD DUP1 DUP4 GT PUSH2 0x188 JUMPI DUP3 SWAP1 SUB PUSH1 0x1F AND DUP3 ADD SWAP2 JUMPDEST POP POP POP POP POP DUP2 JUMP JUMPDEST DUP1 PUSH1 0x1 SWAP1 DUP1 MLOAD SWAP1 PUSH1 0x20 ADD SWAP1 PUSH2 0x1C3 SWAP3 SWAP2 SWAP1 PUSH2 0x255 JUMP JUMPDEST POP POP JUMP JUMPDEST PUSH1 0x1 DUP1 SLOAD PUSH2 0x1D4 SWAP1 PUSH2 0x5AA JUMP JUMPDEST DUP1 PUSH1 0x1F ADD PUSH1 0x20 DUP1 SWAP2 DIV MUL PUSH1 0x20 ADD PUSH1 0x40 MLOAD SWAP1 DUP2 ADD PUSH1 0x40 MSTORE DUP1 SWAP3 SWAP2 SWAP1 DUP2 DUP2 MSTORE PUSH1 0x20 ADD DUP3 DUP1 SLOAD PUSH2 0x200 SWAP1 PUSH2 0x5AA JUMP JUMPDEST DUP1 ISZERO PUSH2 0x24D JUMPI DUP1 PUSH1 0x1F LT PUSH2 0x222 JUMPI PUSH2 0x100 DUP1 DUP4 SLOAD DIV MUL DUP4 MSTORE SWAP2 PUSH1 0x20 ADD SWAP2 PUSH2 0x24D JUMP JUMPDEST DUP3 ADD SWAP2 SWAP1 PUSH1 0x0 MSTORE PUSH1 0x20 PUSH1 0x0 KECCAK256 SWAP1 JUMPDEST DUP2 SLOAD DUP2 MSTORE SWAP1 PUSH1 0x1 ADD SWAP1 PUSH1 0x20 ADD DUP1 DUP4 GT PUSH2 0x230 JUMPI DUP3 SWAP1 SUB PUSH1 0x1F AND DUP3 ADD SWAP2 JUMPDEST POP POP POP POP POP DUP2 JUMP JUMPDEST DUP3 DUP1 SLOAD PUSH2 0x261 SWAP1 PUSH2 0x5AA JUMP JUMPDEST SWAP1 PUSH1 0x0 MSTORE PUSH1 0x20 PUSH1 0x0 KECCAK256 SWAP1 PUSH1 0x1F ADD PUSH1 0x20 SWAP1 DIV DUP2 ADD SWAP3 DUP3 PUSH2 0x283 JUMPI PUSH1 0x0 DUP6 SSTORE PUSH2 0x2CA JUMP JUMPDEST DUP3 PUSH1 0x1F LT PUSH2 0x29C JUMPI DUP1 MLOAD PUSH1 0xFF NOT AND DUP4 DUP1 ADD OR DUP6 SSTORE PUSH2 0x2CA JUMP JUMPDEST DUP3 DUP1 ADD PUSH1 0x1 ADD DUP6 SSTORE DUP3 ISZERO PUSH2 0x2CA JUMPI SWAP2 DUP3 ADD JUMPDEST DUP3 DUP2 GT ISZERO PUSH2 0x2C9 JUMPI DUP3 MLOAD DUP3 SSTORE SWAP2 PUSH1 0x20 ADD SWAP2 SWAP1 PUSH1 0x1 ADD SWAP1 PUSH2 0x2AE JUMP JUMPDEST JUMPDEST POP SWAP1 POP PUSH2 0x2D7 SWAP2 SWAP1 PUSH2 0x2DB JUMP JUMPDEST POP SWAP1 JUMP JUMPDEST JUMPDEST DUP1 DUP3 GT ISZERO PUSH2 0x2F4 JUMPI PUSH1 0x0 DUP2 PUSH1 0x0 SWAP1 SSTORE POP PUSH1 0x1 ADD PUSH2 0x2DC JUMP JUMPDEST POP SWAP1 JUMP JUMPDEST PUSH1 0x0 DUP2 ISZERO ISZERO SWAP1 POP SWAP2 SWAP1 POP JUMP JUMPDEST PUSH2 0x30D DUP2 PUSH2 0x2F8 JUMP JUMPDEST DUP3 MSTORE POP POP JUMP JUMPDEST PUSH1 0x0 PUSH1 0x20 DUP3 ADD SWAP1 POP PUSH2 0x328 PUSH1 0x0 DUP4 ADD DUP5 PUSH2 0x304 JUMP JUMPDEST SWAP3 SWAP2 POP POP JUMP JUMPDEST PUSH1 0x0 DUP2 MLOAD SWAP1 POP SWAP2 SWAP1 POP JUMP JUMPDEST PUSH1 0x0 DUP3 DUP3 MSTORE PUSH1 0x20 DUP3 ADD SWAP1 POP SWAP3 SWAP2 POP POP JUMP JUMPDEST PUSH1 0x0 JUMPDEST DUP4 DUP2 LT ISZERO PUSH2 0x368 JUMPI DUP1 DUP3 ADD MLOAD DUP2 DUP5 ADD MSTORE PUSH1 0x20 DUP2 ADD SWAP1 POP PUSH2 0x34D JUMP JUMPDEST DUP4 DUP2 GT ISZERO PUSH2 0x377 JUMPI PUSH1 0x0 DUP5 DUP5 ADD MSTORE JUMPDEST POP POP POP POP JUMP JUMPDEST PUSH1 0x0 PUSH1 0x1F NOT PUSH1 0x1F DUP4 ADD AND SWAP1 POP SWAP2 SWAP1 POP JUMP JUMPDEST PUSH1 0x0 PUSH2 0x399 DUP3 PUSH2 0x32E JUMP JUMPDEST PUSH2 0x3A3 DUP2 DUP6 PUSH2 0x339 JUMP JUMPDEST SWAP4 POP PUSH2 0x3B3 DUP2 DUP6 PUSH1 0x20 DUP7 ADD PUSH2 0x34A JUMP JUMPDEST PUSH2 0x3BC DUP2 PUSH2 0x37D JUMP JUMPDEST DUP5 ADD SWAP2 POP POP SWAP3 SWAP2 POP POP JUMP JUMPDEST PUSH1 0x0 PUSH1 0x20 DUP3 ADD SWAP1 POP DUP2 DUP2 SUB PUSH1 0x0 DUP4 ADD MSTORE PUSH2 0x3E1 DUP2 DUP5 PUSH2 0x38E JUMP JUMPDEST SWAP1 POP SWAP3 SWAP2 POP POP JUMP JUMPDEST PUSH1 0x0 PUSH1 0x40 MLOAD SWAP1 POP SWAP1 JUMP JUMPDEST PUSH1 0x0 DUP1 REVERT JUMPDEST PUSH1 0x0 DUP1 REVERT JUMPDEST PUSH1 0x0 DUP1 REVERT JUMPDEST PUSH1 0x0 DUP1 REVERT JUMPDEST PUSH32 0x4E487B7100000000000000000000000000000000000000000000000000000000 PUSH1 0x0 MSTORE PUSH1 0x41 PUSH1 0x4 MSTORE PUSH1 0x24 PUSH1 0x0 REVERT JUMPDEST PUSH2 0x43F DUP3 PUSH2 0x37D JUMP JUMPDEST DUP2 ADD DUP2 DUP2 LT PUSH8 0xFFFFFFFFFFFFFFFF DUP3 GT OR ISZERO PUSH2 0x45E JUMPI PUSH2 0x45D PUSH2 0x407 JUMP JUMPDEST JUMPDEST DUP1 PUSH1 0x40 MSTORE POP POP POP JUMP JUMPDEST PUSH1 0x0 PUSH2 0x471 PUSH2 0x3E9 JUMP JUMPDEST SWAP1 POP PUSH2 0x47D DUP3 DUP3 PUSH2 0x436 JUMP JUMPDEST SWAP2 SWAP1 POP JUMP JUMPDEST PUSH1 0x0 PUSH8 0xFFFFFFFFFFFFFFFF DUP3 GT ISZERO PUSH2 0x49D JUMPI PUSH2 0x49C PUSH2 0x407 JUMP JUMPDEST JUMPDEST PUSH2 0x4A6 DUP3 PUSH2 0x37D JUMP JUMPDEST SWAP1 POP PUSH1 0x20 DUP2 ADD SWAP1 POP SWAP2 SWAP1 POP JUMP JUMPDEST DUP3 DUP2 DUP4 CALLDATACOPY PUSH1 0x0 DUP4 DUP4 ADD MSTORE POP POP POP JUMP JUMPDEST PUSH1 0x0 PUSH2 0x4D5 PUSH2 0x4D0 DUP5 PUSH2 0x482 JUMP JUMPDEST PUSH2 0x467 JUMP JUMPDEST SWAP1 POP DUP3 DUP2 MSTORE PUSH1 0x20 DUP2 ADD DUP5 DUP5 DUP5 ADD GT ISZERO PUSH2 0x4F1 JUMPI PUSH2 0x4F0 PUSH2 0x402 JUMP JUMPDEST JUMPDEST PUSH2 0x4FC DUP5 DUP3 DUP6 PUSH2 0x4B3 JUMP JUMPDEST POP SWAP4 SWAP3 POP POP POP JUMP JUMPDEST PUSH1 0x0 DUP3 PUSH1 0x1F DUP4 ADD SLT PUSH2 0x519 JUMPI PUSH2 0x518 PUSH2 0x3FD JUMP JUMPDEST JUMPDEST DUP2 CALLDATALOAD PUSH2 0x529 DUP5 DUP3 PUSH1 0x20 DUP7 ADD PUSH2 0x4C2 JUMP JUMPDEST SWAP2 POP POP SWAP3 SWAP2 POP POP JUMP JUMPDEST PUSH1 0x0 PUSH1 0x20 DUP3 DUP5 SUB SLT ISZERO PUSH2 0x548 JUMPI PUSH2 0x547 PUSH2 0x3F3 JUMP JUMPDEST JUMPDEST PUSH1 0x0 DUP3 ADD CALLDATALOAD PUSH8 0xFFFFFFFFFFFFFFFF DUP2 GT ISZERO PUSH2 0x566 JUMPI PUSH2 0x565 PUSH2 0x3F8 JUMP JUMPDEST JUMPDEST PUSH2 0x572 DUP5 DUP3 DUP6 ADD PUSH2 0x504 JUMP JUMPDEST SWAP2 POP POP SWAP3 SWAP2 POP POP JUMP JUMPDEST PUSH32 0x4E487B7100000000000000000000000000000000000000000000000000000000 PUSH1 0x0 MSTORE PUSH1 0x22 PUSH1 0x4 MSTORE PUSH1 0x24 PUSH1 0x0 REVERT JUMPDEST PUSH1 0x0 PUSH1 0x2 DUP3 DIV SWAP1 POP PUSH1 0x1 DUP3 AND DUP1 PUSH2 0x5C2 JUMPI PUSH1 0x7F DUP3 AND SWAP2 POP JUMPDEST PUSH1 0x20 DUP3 LT DUP2 SUB PUSH2 0x5D5 JUMPI PUSH2 0x5D4 PUSH2 0x57B JUMP JUMPDEST JUMPDEST POP SWAP2 SWAP1 POP JUMP JUMPDEST PUSH1 0x0 DUP2 SWAP1 POP SWAP3 SWAP2 POP POP JUMP JUMPDEST PUSH1 0x0 DUP2 SWAP1 POP DUP2 PUSH1 0x0 MSTORE PUSH1 0x20 PUSH1 0x0 KECCAK256 SWAP1 POP SWAP2 SWAP1 POP JUMP JUMPDEST PUSH1 0x0 DUP2 SLOAD PUSH2 0x608 DUP2 PUSH2 0x5AA JUMP JUMPDEST PUSH2 0x612 DUP2 DUP7 PUSH2 0x5DB JUMP JUMPDEST SWAP5 POP PUSH1 0x1 DUP3 AND PUSH1 0x0 DUP2 EQ PUSH2 0x62D JUMPI PUSH1 0x1 DUP2 EQ PUSH2 0x63E JUMPI PUSH2 0x671 JUMP JUMPDEST PUSH1 0xFF NOT DUP4 AND DUP7 MSTORE DUP2 DUP7 ADD SWAP4 POP PUSH2 0x671 JUMP JUMPDEST PUSH2 0x647 DUP6 PUSH2 0x5E6 JUMP JUMPDEST PUSH1 0x0 JUMPDEST DUP4 DUP2 LT ISZERO PUSH2 0x669 JUMPI DUP2 SLOAD DUP2 DUP10 ADD MSTORE PUSH1 0x1 DUP3 ADD SWAP2 POP PUSH1 0x20 DUP2 ADD SWAP1 POP PUSH2 0x64A JUMP JUMPDEST DUP4 DUP9 ADD SWAP6 POP POP POP JUMPDEST POP POP POP SWAP3 SWAP2 POP POP JUMP JUMPDEST PUSH1 0x0 PUSH2 0x686 DUP3 DUP5 PUSH2 0x5FB JUMP JUMPDEST SWAP2 POP DUP2 SWAP1 POP SWAP3 SWAP2 POP POP JUMP INVALID LOG2 PUSH5 0x6970667358 0x22 SLT KECCAK256 0xBB 0xEF PUSH30 0x902ED55CF6FD38A950E0CCFC27FF23C3A18E6C71CC3E0CD1CE7E7EB25864 PUSH20 0x6F6C634300080E00330000000000000000000000 "
				},
				"gasEstimates": {
					"creation": {
						"codeDepositCost": "347000",
						"executionCost": "infinite",
						"totalCost": "infinite"
					},
					"external": {
						"modifyString()": "infinite",
						"myString()": "infinite",
						"newString()": "infinite",
						"setNewString(string)": "infinite"
					}
				},
				"methodIdentifiers": {
					"modifyString()": "1abd9de4",
					"myString()": "492bfa18",
					"newString()": "a9c9c2a1",
					"setNewString(string)": "8380f98d"
				}
			},
			"storageLayout": {
				"storage": [
					{
						"astId": 4,
						"contract": "contracts/StringsExample.sol:ExampleString",
						"label": "myString",
						"offset": 0,
						"slot": "0",
						"type": "t_string_storage"
					},
					{
						"astId": 7,
						"contract": "contracts/StringsExample.sol:ExampleString",
						"label": "newString",
						"offset": 0,
						"slot": "1",
						"type": "t_string_storage"
					}
				],
				"types": {
					"t_string_storage": {
						"encoding": "bytes",
						"label": "string",
						"numberOfBytes": "32"
					}
				}
			},
			"userdoc": {
				"kind": "user",
				"methods": {},
				"version": 1
			}
		}
	}
}